:030000000239A71B
:0C39A700787FE4F6D8FD7581240239EE2B
:0341EA00DFFE22D3
:10000E00AE07AF061EEF600C7FF51241EA7FF512C8
:05001E0041EA80EE2222
:0240BB00AD074F
:1040BD00E4FCECC39D500FE4FB7FC812000E0BEB2C
:0640CD00B405F60C80ECC6
:0140D30022CA
:10413A00D2BC759850438920758DFAD28ED2AFD2EF
:02414A00AC22A5
:080003008F993099FDC299228A
:1041270012236BFF600C120003740129F9E43AFAB9
:0341370080EE22F5
:103BB60053637265656E00303132333435363738CB
:103BC60039003830383000546D703A25303364008F
:103BD60047657420636D6431004552520000000051
:103BE60000000000000000000000000000000000CF
:103BF60000000000000000000000000000000000BF
:103C060000000000000000000000000000000000AE
:043C160000000000AA
:102CF100C11CC11AC11B4102EB064102E802C11FFE
:102D0100C11DC11E4202DE00004202E0000042027B
:0D2D1100E200004202E400004202E6000081
:103C77009002EBE014601314601314601A146021AF
:103C87001460282405703102405002406B7BFF7A94
:103C97000A79E67D15801C7BFF7A0879867D13807B
:103CA700127BFF7A0379867D2880087BFF7A00796B
:0E3CB700467D1A7C00023B39E49002EBF022BD
:103F5E009002EBE0700B301F1DC21F1241A40237FE
:103F6E00989002EBE0B4010E301D0BC21D123AB652
:073F7E001241131236CA22A2
:102A130078967C017D017BFF7A3B79E37E007F051D
:102A2300122345E490019BF0789C7C017D017BFFA0
:102A33007A3B79E8FE7F32122345E49001CEF0A37E
:102A4300F07F021240BB12413A123AB69002F4E010
:102A5300FEA3E0FF4E9002E96007EEF0A3EFF080E3
:102A630006E4F0A37419F012414C12417B12413A6F
:102A73007F011240BB9001D374FFF0A3743BF0A31A
:102A830074BDF0A374FFF0A3743BF0A374C8F07B90
:102A9300FF7A3B79B61234F39002EB7406F07BFFB6
:102AA3007A0D79867D047C00123B39123F0C301E6F
:102AB3005AC21E123AB612411390020E74FFF0A3CB
:102AC300743BF0A374CDF09002E9E0FFA3E0900221
:102AD30011CFF0A3EFF07B017A01799C1225F57BEE
:102AE300017A01799C1240EA9001D5EEF0A3EFF050
:102AF3007B017A01799CE4FDFC123A337E007F323C
:102B03007D007B017A01799C1225279002E8E0B4CD
:102B13000214123F5E7B017A007900900180A3E0EA
:102B2300FD1235F080199002E8E0B40312123F5E03
:102B33007B017A007900900180A3E0FD1232C3305B
:102B43001B17C21B9002EBE0C394054004E4F08022
:102B53001E9002EBE004F08016301A16C21A90029F
:102B6300EBE070057405F080069002EBE014F012C0
:102B73003C771241DE4003022C0A9002B2E094013A
:102B83009002B1E064809480407AE49001CEF0A397
:102B9300F09002B1E0FEA3E0FF9001CEE0FCA3E0E1
:102BA300FDC39FEE6480F8EC648098503A74B52DB1
:102BB300F58274023CF583E0FF64246018EF64231C
:102BC3006013EF645E600EEF64266009EF642A60B1
:102BD30004EFB45B02C21C9001CFE004F070B2902A
:102BE30001CEE004F080AA301C187B017A0279B58B
:102BF3009002DDE0FD7C0012390E9002EB7406F0CA
:102C03008002D21C123FF57B017A017996123D5066
:102C1300EF7003022CDF900198E014B40A00400324
:102C2300022CD6902C3475F003A4C58325F0C583FC
:102C330073022C52022C62022C6D022C7D022C8D0D
:102C4300022C9D022CAD022CB5022CBD022CD2E429
:102C53009002EBF01240507BFF7A3B79D6807A905A
:102C630002EB7401F012406B80729002EB7402F07D
:102C73007BFF7A0A79E67D15804E9002EB7403F0B0
:102C83007BFF7A0879867D13803E9002EB7404F013
:102C93007BFF7A0379867D28802E9002EB7405F002
:102CA3007BFF7A0079467D1A801E9002E87402F059
:102CB300802A9002E87403F080229002EB7406F0FD
:102CC3007BFF7A0D79867D047C00123B39800DD21F
:102CD3001B80097BFF7A3B79DF1241277E007F044B
:0E2CE3007D007B017A017996122527022AB125
:03000B000233E0DD
:1033E000C0E0C0F0C083C082C0D075D000C000C0B3
:0D33F00001C002C003C004C005C006C00734
:1033FD00758CF7758ACC9002DFE004F070069002B0
:10340D00DEE004F09002E1E004F070069002E0E0EE
:10341D0004F09002E3E004F070069002E2E004F0A4
:10342D009002E5E004F070069002E4E004F09002F2
:10343D00E7E004F070069002E6E004F09002E0E0B0
:10344D007004A3E064017008D2219002E0F0A3F0B3
:10345D009002E2E0FEA3E0FFE4FCFD7BEEFAF9F85A
:10346D00C312247E7008D2209002E2F0A3F09002E5
:10347D00DEE0FEA3E0FFE4FCFD7BCA7A02F9F8C3AF
:10348D0012247E70089002DEF0A3F0D2229002E4A6
:10349D00E0FEA3E0FFE4FCFD7BDC7A01F9F8C3124A
:1034AD00247E70089002E4F0A3F0D21F9002E6E0B3
:1034BD00FEA3E0FFE4FCFD7BB87A03F9F8C3122408
:0B34CD007E70089002E6F0A3F0D21D14
:1034D800D007D006D005D004D003D002D001D00048
:0B34E800D0D0D082D083D0F0D0E032F2
:0A41D40034431010013443101001B1
:0E417B007F3212000EC290D293C291D29522D2
:0C3FAC00EBF0A3EAF0A3E9F0E4FDC293FF
:103FB800E4FEEF339294EF25E0FFD291A292E4332E
:093FC8004FFFC2910EEEB408E9AE
:013FD10022CD
:0C419700C293123FB8E4FF123FB8D2936D
:0141A30022F9
:0940A1007D017F211240AA7F225B
:1040AA00C293123FB8AC07AF05123FB8D293AF0420
:0140BA0022E3
:033DF5009001D466
:103DF800123FACAC079001D7E0FFEDC39F501CE425
:103E0800FF123FB89001D4E0FBA3E0FAA3E0F98DDC
:0F3E180082758300EF1223C30D80DAD293AF04BB
:013E27002278
:0E3D11007BFF7A4179D49001D47405F07F2AAB
:033D1F009001D13F
:103D2200123FACAC079001D4E0FFEDC39F501A9054
:103D320001D1E0FBA3E475F0011223F7A9F0FA1216
:0D3D4200236BFF123FB80D80DCD293AF045D
:013D4F002251
:103C1A009002F6EBF0A3EAF0A3E9F0C2907BFF7AF8
:103C2A004179D49001D47405F07F30123D1F123DC2
:103C3A00119002F6E0FBA3E0FAA3E0F99001D47434
:103C4A0004F07FA0123D1F1240A17D1F7F24124065
:103C5A00AAE4FD7F251240AA7D077F261240AA7D8D
:0D3C6A000E7F201240AAD2907F0A0241EA8C
:103F0C00C290123D111240A11D7F251240AA7D04C2
:103F1C007F311240AA7D077F261240AA7D0F7F2099
:0A3F2C001240AAD2907F320241EA4F
:103FD2007F071241978F202005033004137DFF7F56
:103FE200271240AAC2937FE1123FB8D2937F0022E8
:033FF2007F01222A
:0B3D50009001D0EBF0A3EAF0A3E9F033
:103D5B00E4FB7F071241978F2030061CC290900125
:103D6B00D0E0FBA3E0FAA3E0F99001D77405F07F54
:103D7B0061123DF57B01D2907DFF7FE21240AAAF2D
:013D8B000334
:013D8C002214
:102D1E0061800000FF00260000000000000000009F
:102D2E000000000000000000000000000000000095
:102D3E000000000000000000000000000000000085
:102D4E000000000000000000000000000000000075
:102D5E000000000000000000000000000000000065
:102D6E000000000000000000000000000000000055
:102D7E000000000000000000000000000000000045
:102D8E000000000000000000000000000000000035
:102D9E000000000000000000000000000000000025
:102DAE000000000000000000000000000000000015
:102DBE000000000000000000000000000000000005
:102DCE0000000000000000000000000000000000F5
:102DDE0000000000000000000000000000000000E5
:102DEE0000000000000000000000000000000000D5
:102DFE0000000000000000000000000000000000C5
:102E0E0000000000000000000000000000000000B4
:102E1E0000000000000000000000000000000000A4
:102E2E000000000000000000000000000000000094
:102E3E000000000000000000000000000000000084
:102E4E000000000000000000000000000000000074
:102E5E000000000000000000000000000000000064
:102E6E000000000000000000000000000000000054
:102E7E000000000000000000000000000000000044
:102E8E000000000000000000000000000000000034
:102E9E00000000004101820041019500C121C122C4
:102EAE00C12042018000005001850F0E0D0C0B0A4F
:0F2EBE0009080706050403020100420183000012
:10401800E49001D7F012240D7E005403FF600CC316
:0B40280074049FFFE49E8FF012243808
:01403300226A
:073D8D00E4F0A3F012415C19
:103D9400E4FFFE90000075F003EF1224A5EE75F029
:103DA40003A42583F58374FFF0A37400F0A37426A1
:0C3DB400F00FBF00010EEF64804E70D7CE
:013DC00022E0
:103E2800E0FBA3E0FAA3E0F98D828C8374031224EB
:103E3800941224D1900195E0F582758300122384B1
:013E4800FF7A
:103E49007E08EF33B39284C2A5D2A5EF25E0FFDE49
:013E5900F177
:013E5A002245
:10414C00438901D2AF758CF7758ACCD2A9D28C2257
:0E35F0009001D0EBF0A3EAF0A3E9F0A3EDF018
:1035FE002021030236C9C221C2A6900183E0FCA39A
:10360E00E0FD900184E02404FF900183E03400FE8D
:10361E00C3ED9FEC9E50319001D0123E289001D008
:10362E00E0FBA3E0FAA3E0F98D828C8374031224ED
:10363E00941224D1900195E0F582758300A3123E79
:10364E00450DBD00010C80BAD2A1900182E0248507
:10365E00F582E43401F583E0FF139280EFA2E1924C
:10366E0081A2E29282A2E39283D2A6C2A1900182AB
:10367E00E004F0E0B41037E4F0302032C2209001C4
:10368E0084E004F07006900183E004F0900184E081
:10369E002404FF900183E03400FE9001D3E0FDD3BB
:1036AE00EF9DEE94004007E4900183F0A3F09001AB
:0B36BE0095E02402F0E0B42002E4F0EC
:0136C90022DE
:0E32C3009001D0EBF0A3EAF0A3E9F0A3EDF048
:1032D1002021030233DFC221C2A6900183E0FFA3B4
:1032E100E09001D4CFF0A3EFF0900184E02404FF3B
:1032F100900183E03400FE9001D3E0FD7C00D3EF28
:103301009DEE9C40067E00AF05800E900184E02476
:1033110004FF900183E03400FE9001D4E0FCA3E0BF
:10332100FDC39FEC9E50429001D0123E289001D0E7
:10333100E0FBA3E0FAA3E0F99001D4E0FEA3E0F5FD
:10334100828E8374031224941224D1900195E0F5A6
:1033510082758300A3123E459001D5E004F070060A
:103361009001D4E004F00232EAD2A1900182E0247B
:1033710085F582E43401F583E0FF139280EFA2E149
:103381009281A2E29282A2E39283D2A6C2A190018B
:1033910082E004F0E0B41039E4F0302234C222902B
:1033A1000184E02404FF900183E03400FE9001D306
:1033B100E0FDC3EF9DEE94005010900184E02404E1
:1033C100F0900183E03400F08007E4900183F0A3E2
:0E33D100F0900195E02402F0E0B42002E4F058
:0133DF0022CB
:10390E009001D0EBF0A3EAF0A3E9F0A3ECF0A3ED65
:01391E00F0B8
:10391F00E4A3123D8EE49001D5F0A3F09001D3E023
:10392F00FEA3E0FFA3E0FCA3E0FDC39FEC9E50507D
:10393F009001D0E0FBA3E0FAA3E0F98D828C831213
:10394F00238475F020A42486F9740D35F0FA9001C4
:10395F00D5E0FEA3E090000075F0031224A5EE75EC
:10396F00F003A42583F58374FFF0A3EAF0A3E9F035
:10397F009001D6E004F070A49001D5E004F0809C93
:10398F009001D3E0FFA3E0900180CFF0A3EFF07B95
:08399F00017A01798002401851
:10415C00E4900182F0900195F0900183F0A3F0229D
:103B39009001D0EBF0A3EAF0A3E9F0A3ECF0A3ED38
:013B4900F08B
:103B4A00E4FDFC12415C123D94D39001D4E09D90B7
:103B5A0001D3E09C403EEDAE047805C333CE33CEAC
:103B6A00D8F9FF9001D0E0FBA3E0FAA3E02FF9EA2D
:103B7A003EFA90000075F003ED1224A5EC75F003EF
:103B8A00A42583F583EBF0A3EAF0A3E9F00DBD00C9
:103B9A00010C80B59001D3E0FFA3E0900180CFF043
:0C3BAA00A3EFF07B017A01798002401843
:10379800E49001D2F0A3F09001D2F0A3F09001D20E
:1037A800E0FCA3E0FDAE047805C333CE33CED8F9F0
:1037B8002466F974103EFA90000075F003ED1224A7
:1037C800A5EC75F003A42583F58374FFF0A3EAF054
:1037D800A3E9F09001D3E004F070069001D2E00470
:1037E800F09001D2E07004A3E0640970B09001D2B7
:1037F800E4F0A37409F09001D2E0FEA3E0FFC394C3
:103808001CEE9400504974432FF58274023EF583F0
:10381800E075F020A42486F9740D35F0FA9001D2F1
:10382800E0FEA3E090000075F0031224A5EE75F009
:1038380003A42583F58374FFF0A3EAF0A3E9F090CD
:0F38480001D3E004F070AF9001D2E004F080A74C
:01385700224E
:104050009001D0123D8D123798900180E4F0A37446
:0B4060001CF07B017A017980024018FF
:1036CA00E49001D2F0A3F09001D2F0A3F09001D2DD
:1036DA00E0FCA3E0FDAE047805C333CE33CED8F9BF
:1036EA002446F9740F3EFA90000075F003ED122497
:1036FA00A5EC75F003A42583F58374FFF0A3EAF023
:10370A00A3E9F09001D3E004F070069001D2E0043E
:10371A00F09001D2E07004A3E0640970B09001D285
:10372A00E4F0A37409F09001D2E0FEA3E0FFC39491
:10373A000CEE9400504974E32FF58274023EF5832F
:10374A00E075F020A42486F9740D35F0FA9001D2C0
:10375A00E0FEA3E090000075F0031224A5EE75F0D8
:10376A0003A42583F58374FFF0A3EAF0A3E9F0909C
:10377A0001D3E004F070AF9001D2E004F080A7908A
:0D378A00002474FFF0A37410F0A37426F067
:01379700220F
:10406B009001D0123D8D1236CA900180E4F0A374FA
:0B407B000DF07B017A017980024018F3
:1000260000000000000000000000000000000000CA
:1000360000000000000000000000000000000000BA
:1000460000000000000000000000000000000000AA
:10005600000000000000000000000000000000009A
:10006600000000000000000000000000000000008A
:10007600000000000000000000000000000000007A
:10008600000000000000000000000000000000006A
:10009600000000000000000000000000000000005A
:1000A600000000000000000000000000000000004A
:1000B600000000000000000000000000000000003A
:1000C60010401020102013FEFA02149411081A048E
:1000D6003000D1FC102010201020102057FE2000E8
:1000E6000404240424043FA444240424FFE4042434
:1000F60004243FA424A424A4268425040414040868
:10010600202011241124FD2401FC08008BFE8820E8
:10011600484049FC515451541D54E1544154010C7A
:1001260002000200FFFE040004000FF00810181081
:100136002FF0481088100FF00810081008500820FB
:100146000100020004001FF01010101010101FF024
:10015600101010101FF01010101010101FF01010BB
:100166000404240424043FA444240424FFE40424B3
:1001760004243FA424A424A42684250404140408E7
:100186001010082004403FF8210821083FF82108F4
:1001960021083FF801000100FFFE010001000100F7
:1001A600004010401040104010401FFC100010008E
:1001B60010001FE0102010201020202020204020BA
:1001C600100011F011101110FD101110311039101E
:1001D600551055109110111211121212120E140010
:1001E6001FF010101FF010101FF00000FFFE22007D
:1001F6003EF822883E9022502F20F2504288030675
:100206000100010001000100010011101108110494
:1002160021042102410281020100010005000200C1
:1002260000F83F000400082010403F80010006103F
:1002360018087FFC0104092011102108450402005A
:1002460010401020202023FE4840F888110423FE89
:100256004092F890409000901912E112420E04006C
:100266000808481C49E0490049007DFC41444144D6
:10027600794449284928491049104A284A448C8219
:1002860004000E007800087C0844FF440844184423
:100296001C442A442A444844887C08440800080030
:1002A600020001003FFC2004420802000200FFFE9B
:1002B6000420082018400640018002600C107008D7
:1002C600010001FC010001001FF010101FF01010CA
:1002D6001FF011100100FFFE0100010001000100E6
:1002E600001000F83F00010001003FF80100010086
:1002F6000100FFFE010001000100010005000200EF
:10030600100011F011101110FD10111031103910DC
:10031600551055109110111211121212120E1400CE
:10032600020001007FFE400288040FF010202C40DE
:1003360003801C70E00E1FF0101010101FF010103C
:100346000200010001001FF810081008100810082C
:100356001FF81008100010001000200020004000B8
:10036600202011241124FD2401FC08008BFE882086
:10037600484049FC515451541D54E1544154010C18
:100386000000000000000000000000000000000067
:100396000000000000000000000000000000000057
:1003A6000000000000000000000000000000000047
:1003B6000000000000000000000000000000000037
:1003C6000000000000000000000000000000000027
:1003D6000000000000000000000000000000000017
:1003E6000000000000000000000000000000000007
:1003F60000000000000000000000000000000000F7
:1004060001000100010001007FFC0380054005405A
:100416000920111021084FE48102010001000100AA
:100426000100008000803FFC20002000200020000A
:100436002000200020002000200040004000800016
:100446000100110011001FF8210041000100FFFE0C
:10045600000000001FF01010101010101FF01010F8
:1004660000003FF8200820083FF8241022202FF82B
:10047600222022203FFC22204220442084200820E3
:10048600104010401FFE2040204067FC6444A444F6
:1004960027FC2040224021402080214022302C0E83
:1004A60000003FF82108210821083FF8210821080B
:1004B60021083FF821082108210841084128801019
:1004C600000000000000C7006200620052005200F7
:1004D6004A004A004A0046004600E20000000000CA
:1004E600000000000000FC004200420042007C00C8
:1004F60048004800440044004200E30000000000B9
:10050600000000000000FC0042004800480078009F
:1005160048004800400040004000E00000000000A5
:100526000000000000003C004200420042000400BF
:10053600040008001000200042007E0000000000B9
:1005460000000000000004000C0014002400240039
:10055600440044007E00040004001E000000000069
:10056600000000000000E0004000400040004000A5
:1005760040004000400040004200FE000000000035
:100586000000000000001800240042004200420063
:100596004200420042004200240018000000000011
:1005A6000000000000001000700010001000100095
:1005B600100010001000100010007C000000000069
:1005C6001110111017FC1110FC0013F832083BF83B
:1005D600560853F8904017FC10A011101208140684
:1005E60010401040104013FC1044FC4410441044CA
:1005F60013FE104010A01CA0E110420804040802DB
:1006060004000E007800087C0844FF44084418449F
:100616001C442A442A444844887C084408000800AC
:10062600000000000000D6009200920092009200A6
:10063600AA00AA006C004400440044000000000028
:1006460000000000000030003000000000007000D4
:10065600100010001000100010007C0000000000C8
:100666000000000000000F001100100010007E00C6
:10067600100010001000100010007C0000000000A8
:100686000000000000003000300000000000700094
:10069600100010001000100010007C000000000088
:1006A6000000000000000000000000000000000044
:1006B6000000000000000000000000000000000034
:1006C600000000000000FC004200480048007800DE
:1006D60048004800400042004200FC0000000000C4
:1006E6000000000000003E004200420040002000E2
:1006F600180004000200420042007C0000000000D6
:10070600000000000000FC004200420042004200DF
:100716007C004000400040004000E0000000000077
:100726000000000000003C0042004200420024009D
:10073600180024004200420042003C000000000075
:100746000000000000003C0042004200420004009D
:10075600040008001000200042007E000000000097
:100766000000000000001C0024004000400058006B
:10077600640042004200420024001800000000000D
:100786000000000000001C0024004000400058004B
:1007960064004200420042002400180000000000ED
:1007A6001110111017FC1110FC0013F832083BF859
:1007B600560853F8904017FC10A0111012081406A2
:1007C60010401040104013FC1044FC4410441044E8
:1007D60013FE104010A01CA0E110420804040802F9
:1007E600020001007FFE400288840480048010809D
:1007F60008800880FFFE01400220041018086004EB
:10080600000001FCFD0411041124112411247D248F
:1008160011241154105010901C90E1124212040E33
:1008260000000000FDFC0484448444842888288851
:100836001050105028202820445044888104020279
:10084600000047F8201021A0004007FCE44424449F
:1008560027FC2444244427FC2444245454088FFEB3
:10086600084008200BFE1000100031FC300050003C
:1008760091FC1000100011FC1104110411FC11046C
:100886000000000000000000000000000000000062
:100896000000000000000000000000000000000052
:1008A6000000000000000000000000000000000042
:1008B6000000000000000000000000000000000032
:1008C6000000000000000000000000000000000022
:1008D6000000000000000000000000000000000012
:1008E6000000000000000000000000000000000002
:1008F60000000000000000000000000000000000F2
:1009060000007FFC0100010001000100110011F848
:10091600110011001100110011001100FFFE00006E
:10092600020002000400FFFE0800084010403040AC
:1009360057FC904010401040104010401FFE100021
:1009460000902090109013FC00900090F09017FEFD
:1009560010901090111011101210280047FE000080
:10096600080009FC100020004800080013FE302093
:1009760050209020102010201020102010A0104091
:1009860001000100010001000100FFFE010001005D
:100996000280028004400440082010102008C0068F
:1009A60022081108111000207FFE400280041FE07B
:1009B60000400180FFFE0100010001000500020069
:1009C60001001100110011003FFC210041008100CF
:1009D60001003FF80100010001000100FFFE0000D8
:1009E60008101D10F09010901010FD101090389007
:1009F6003410501E53F090101010101010101010DC
:100A060010201020102013FEFC201020102015FCB2
:100A160018843088D048105010201050518826066F
:100A260002000100010000007FFC00000010101011
:100A3600082008200440044004800000FFFE000057
:100A4600000001FE0020FC4011FC110411241124B9
:100A56001124112411241D44E0504088010402028F
:100A6600000001FE0020FC4011FC11041124112499
:100A76001124112411241D44E0504088010402026F
:100A860000003FF82008200820083FF8200820082A
:100A960020083FF820082008200820083FF82008F2
:100AA6000020F82008504850488849044AFA7C003B
:100AB600044404241D24E4A8448804102BFE1000DA
:100AC600084008404840488048FE49084A88488807
:100AD60048885850685048200850088809040A0277
:100AE6000000000000000000000000000000000000
:100AF60000000000000000000000000000000000F0
:100B060000000000000000000000000000000000DF
:100B160000000000000000000000000000000000CF
:100B260000000000000000000000000000000000BF
:100B360000000000000000000000000000000000AF
:100B4600000000000000000000000000000000009F
:100B5600000000000000000000000000000000008F
:100B6600002800243FFE20202FA420242FA8289808
:100B760028924FAA4046808201004884481287F294
:100B8600010842082788248807BE0488E78824C805
:100B960024A82FA821882A883488288802A801102A
:100BA600040004000FF0182024C003000CC03030ED
:100BB600C00E1FF010101010101010101FF01010A3
:100BC600088008400840100017FC30003008520822
:100BD6009208111011101110112010201FFE100084
:100BE600020002083FD002200240FFFE0100020080
:100BF6000C1018E02F0048088808080807F80000BD
:100C060008000BFE48204820482049FC4924492476
:100C16004924492449240934112810202020402041
:100C26001040104020A021104A08F40613F82000B6
:100C36004000FBF8420802081A08E20843F80208D6
:100C460004400E50784808480840FFFE0840084413
:100C56000A440C48183068220852088A2B061002EB
:100C66000900088008BC120412043204320452043B
:100C7600920412041204120412041204121412082A
:100C860008101D10F09010901010FD101090389064
:100C96003410501E53F09010101010101010101039
:100CA60010201020102013FEFC201020102015FC10
:100CB60018843088D04810501020105051882606CD
:100CC60002000100010000007FFC0000001010106F
:100CD600082008200440044004800000FFFE0000B5
:100CE600000001FE0020FC4011FC11041124112417
:100CF6001124112411241D44E050408801040202ED
:100D06001040104020407E7C42844284430442448A
:100D16007E2442244204420442047E0442280010F7
:100D2600100011F011101110FD10111031103910B2
:100D3600551055109110111211121212120E1400A4
:100D4600010001000280044008203018CFE60000B0
:100D560000007FFC02000400082010103FF8100875
:100D6600000010001000100010001000100010000D
:100D7600100010000000000010001000000000002D
:100D8600000000000000000000000000000000005D
:100D9600000000000000000000000000000000004D
:100DA600000000000000000000000000000000003D
:100DB600000000000000000000000000000000002D
:100DC600000000000000000000000000000000001D
:100DD600000000000000000000000000000000000D
:100DE60000000000000000000000000000000000FD
:100DF60000000000000000000000000000000000ED
:100E06003FF801007FFE41029D7401001D700280C3
:100E16000C603218C1061FE0002006400180004029
:100E26000000000000000000000000000000FFFEBF
:100E360000000000000000000000000000000000AC
:100E46000000000000003FF8000000000000000065
:100E56000000000000000000FFFE0000000000008F
:100E6600000000007FFC00000000000000003FF8CA
:100E760000000000000000000000FFFE000000006F
:100E8600000000007FFC4444444444444444444439
:100E96004844483C5004600440047FFC4004000081
:100EA60000007FFC02000200020002003FF0041076
:100EB600041004100410081008100810FFFE0000AB
:100EC60002000100008000800000FFFE000000001C
:100ED60004400420081008081008200440040000FC
:100EE60002000200020002000200023C07C0FA00F3
:100EF60002000200020002040204020401FC0000D7
:100F06000000004004400440044004400440042023
:100F1600082008200810101010082008200440029D
:100F260004000400040004007FE0042004200420E0
:100F3600082008200820102210222022401E8000AF
:100F4600000000000000000000000000000000009B
:100F5600000000000000000000000000000000008B
:100F6600000000000000000000000000000000007B
:100F7600000000000000000000000000000000006B
:100F8600000000000000000000000000000000005B
:100F9600000000000000000000000000000000004B
:100FA600000000000000000000000000000000003B
:100FB600000000000000000000000000000000002B
:100FC6000100210811080910092001007FF8000816
:100FD600000800083FF80008000800087FF800082D
:100FE600101008100820FFFE00003E082248224884
:100FF6003E48224822483E48220822082A28241031
:10100600000023F81208120883F84208420813F871
:10101600100027FCE4A424A424A424A42FFE00008A
:10102600010000803FFE222022203FFC22202220B9
:1010360023E020002FF02410422041C08630380ED5
:10104600000000000000000000000000000000009A
:1010560000003000300000003000300000000000CA
:10106600000000000000000000000000000000007A
:10107600000000000000000000000000000000006A
:10108600000000000000000000000000000000005A
:10109600000000000000000000000000000000004A
:1010A600000000000000000000000000000000003A
:1010B600000000000000000000000000000000002A
:1010C600000000000000000000000000000000001A
:1010D600000000000000000000000000000000000A
:1010E600020001007FFE4002888404800480108094
:1010F60008800880FFFE01400220041018086004E2
:10110600000800087C08440845FE440844087C089A
:1011160044884448444844087C0844080028001091
:10112600000800087C08440845FE440844087C087A
:1011360044884448444844087C0844080028001071
:10114600200013FC1004400447C44444444444446F
:1011560047C444444444444447C4400440144008FB
:101166000000000000000000000000000000000079
:1011760000003000300000003000300000000000A9
:101186000000000000000000000000000000000059
:101196000000000000000000000000000000000049
:1011A60000000000600060006000600060006000F9
:1011B60060006000600000000000600000000000A9
:1011C60000000000700070007000700070000000E9
:1011D6000000000000000000000000000000000009
:1011E600000000000D800D800D8009807FE01B004F
:1011F6001B001B00FFC03600360036000000000052
:1012060000000C001E007F806DC06CC06C007C006E
:101216001F000FC00CC0CCC06CC07DC03F800C004E
:10122600000000003C306E30666046C066C06F80CD
:101236003D800378036006C006400C680C78000009
:10124600000000000F001B80318031801B801F00D2
:101256003E30773063B041E060E061F03F980000D7
:101266000000C000C000C000C000C00000000000B8
:101276000000000000000000000000000000000068
:1012860000001C00180030003000600060006000A4
:101296006000600060006000600020003000180000
:1012A6000000C00060003000300018001800180070
:1012B60018001800180018001800300030006000F0
:1012C600000018001800FE0038003C006400000012
:1012D6000000000000000000000000000000000008
:1012E6000000000000000C000C000C000C00FFC009
:1012F6000C000C000C000C000000000000000000B8
:1013060000000000000000000000000000000000D7
:101316000000000000000000300030003000000037
:1013260000000000000000000000000000000000B7
:10133600FC000000000000000000000000000000AB
:101346000000000000000000000000000000000097
:101356000000000000000000000030000000000057
:10136600000000000C000C001800180018003000E7
:1013760030003000600060004000C0000000000047
:10138600000000001E003B8061806080C0C0C0C0BD
:10139600C0C0C0C0C0C06080618073803F000000D4
:1013A60000000000060006000E001E0036000600C3
:1013B6000600060006000600060006000000000003
:1013C600000000003F007380618040800180018042
:1013D60007000E00180030006000FF8000000000CB
:1013E600000000001E007380618041800180038040
:1013F6001F00038000C0C0C0608061803F00000005
:10140600000000000300070007000D001D00190082
:10141600310061006100FFC0010001000000000012
:10142600000000007F8060006000600060007F00B8
:101436006180008000C0C08061807F800000000065
:10144600000000001F003B80618060004000FF80BC
:10145600E180E0C0C0C060C060807F800000000006
:1014660000000000FFC001800180030003000600A9
:1014760006000C000C001800180018000000000000
:10148600000000001F007380608060C06080718073
:101496003F0071C0C0C0C0C060C061803F80000016
:1014A600000000001E0073806180C0C0C0C040C044
:1014B60061C073C01FC0008061807F800000000093
:1014C6000000000000000000300030003000000086
:1014D60000000000000000003000300000000000A6
:1014E6000000000000000000300030003000000066
:1014F6000000000000000000300030003000000056
:1015060000000000000000C0038007001C00380037
:10151600E00030001C000E00038001C00000000047
:1015260000000000000000000000000000007FC076
:1015360000007FC000000000000000000000000066
:10154600000000000000600070001C000E00038018
:1015560001C0018007000E00380070000000000086
:10156600000000001F00338060C000C000800180C2
:1015760007000E000C00000000000C000C0000002C
:101586000000000001F00F181C00380033F867183F
:1015960066186418641864186638677833C83800A3
:1015A600000000000600070007000D800D8018C02F
:1015B60018C030603FE060306030C0380000000086
:1015C600000000007F8061C060606060606060C095
:1015D6007FC060E06060603060207FE00000000057
:1015E600000000000F801CE03030603860004000D2
:1015F6004000400060006018303038701FE0000086
:10160600000000007F0061E06070603060106018CC
:101616006018601860106030603060E03FC0000005
:10162600000000007FE06000600060006000600075
:101636007FE060006000600060007FE00000000066
:10164600000000007FE06000600060006000600055
:101656007FC0600060006000600060000000000065
:101666000000000007C01CF0303060186000600009
:1016760061F8601860186018301838300FE0000004
:1016860000000000603060306030603060306030F4
:101696007FF0603060306030603060300000000005
:1016A60000000000600060006000600060006000F4
:1016B60060006000600060006000600000000000E4
:1016C6000000000003000300030003000300030002
:1016D600030003000300C300C30066007E00000091
:1016E600000000006030606060C0618063006600DA
:1016F6006F007B00718060C060E0607000300000A9
:101706000000000060006000600060006000600093
:10171600600060006000600060007FC000000000A4
:1017260000000000601C701C701C783C787C6C7C8F
:101736006CEC66EC67EC67CC63CC638C0000000055
:10174600000000006030703078307C306C306630DD
:101756006730633061B060F060F0607000000000D8
:101766000000000007C01FF030F860786038401CA9
:10177600401C601C6018603830781FF000000000C4
:10178600000000007F8060E06060603060306020B4
:1017960060607FC0600060006000600000000000C4
:1017A6000000000007C01CF0303860186008400CCC
:1017B600400C600C60086218317019C00FFC000004
:1017C600000000007F8060E0603060306030603094
:1017D6007FE0618061C060E060606038000000000A
:1017E600000000001F8039C0606060206000380083
:1017F6000F8001E000706030603030601FC0000074
:1018060000000000FFE006000600060006000600D5
:10181600060006000600060006000600000000009E
:101826000000000060306030603060306030603052
:101836006030603060302030306038E01FC000001B
:1018460000000000C030C060C060606060C030C092
:10185600318019801B001B000F000E0000000000E5
:10186600000000008104C104C384438C638C66DCE1
:1018760066DC36D83CF83C781C781830000000004E
:1018860000000000C060E0C0618033801B000E00D5
:101896000E001E001B00318061C0C0E00000000089
:1018A60000000000C030C06060E030C039801B001E
:1018B6000F000600060006000600060000000000F5
:1018C600000000007FE000C000C0018003000700A8
:1018D60006000C00180030007000FFE00000000059
:1018E6000000F800C000C000C000C000C000C0007A
:1018F600C000C000C000C000C000C000C000C000E2
:1019060000000000C000C000600060006000300001
:10191600300030001800180008000C00000000001D
:101926000000F80018001800180018001800180029
:1019360018001800180018001800180018001800E1
:1019460000000000380038006C006C00C600C600BD
:1019560083000000000000000000000000000000FE
:101966000000000000000000000000000000000071
:101976000000000000000000000000000000FFE082
:1019860000000000C000E000600000000000000051
:101996000000000000000000000000000000000041
:1019A6000000000000001E007B80618001801F8017
:1019B6007080C180C18063C07EC00000000000004E
:1019C600000000006000600060006E007F00618023
:1019D600608060C060C060C061807F8000000000E1
:1019E600000000000000000000001C003F006180B5
:1019F600C000C000C000C000618061803F000000E0
:101A0600000000000180018001801D807F806180D0
:101A16004180C180C180C18061807F80000000005C
:101A2600000000000000000000000E003F8061C0C2
:101A360060C0C0C0FFC0400060C07F8000000000E2
:101A4600000000003C00600060006000F8006000DC
:101A56006000600060006000600060000000000040
:101A66000000000000001E007F8061804180C18070
:101A7600C1804180618077801F8001807F80000067
:101A8600000000006000600060006E007B807180D6
:101A960061806180618061806180618000000000FA
:101AA600000000000C000C0000000C000C000C00F4
:101AB6000C000C000C000C000C000C0000000000D8
:101AC600000001800180000001800180018001800A
:101AD6000180018009800D800780018000000000E0
:101AE6000000000060006000600060006380670026
:101AF6006E007C007E0066006300618000000000CE
:101B060000000000C000C000C000C000C000C0004F
:101B1600C000C000C000C000C000C000000000003F
:101B260000000000000000006E787FFC719C618C54
:101B3600618C618C618C618C618C000000000000FE
:101B460000000000000000006E007B807180618054
:101B5600618061806180618061800000000000001A
:101B660000000000000000000E003F8061C040C081
:101B7600C0C0C0C040C060C071803F00000000000F
:101B86000000000000006E007F006180608060C081
:101B960060C06080618071807F00600060006000CE
:101BA6000000000000001D807F8061804180C180B0
:101BB600C180C180618063803F8001800180018097
:101BC600000000000000000000007C007E007000A5
:101BD60060006000600060006000600000000000BF
:101BE600000000000000000000001C00770061807B
:101BF600600078001F000180C1807F800000000027
:101C0600000000000000600060006000F800600056
:101C16006000600060006000600078000000000066
:101C2600000000000000000000006080608060800E
:101C36006080608060806180618063803E0000001B
:101C4600000000000000000000008180C180C30089
:101C560063006200660036003C001C0000000000C5
:101C6600000000000000000000000600C738C73072
:101C7600CF706D706DE079E038E038C0000000008C
:101C860000000000000000000000C000C3806700E4
:101C96003E001C001C003E006700C38000000000E0
:101CA6000000000000008180C180C3006300660060
:101CB600660036003C001C0018001800F00000000A
:101CC600000000000000000000007F80018003008B
:101CD60007000E001C0038003000FF8000000000E6
:101CE600000000001C0030003000300030003000E2
:101CF60030003000F000300030003000300030009E
:101D0600000000006000600060006000600060008D
:101D160060006000600060006000600060006000BD
:101D260000000000F000100018001800180018004D
:101D3600180018001C0018001800180018001800D9
:101D4600000000000000000000000000000000008D
:101D56007E6067C000000000000000000000000078
:1038580041542B43495053454E443D25642C25641F
:103868000D0A0041542B5253540D0A0041542B4366
:10387800574D4F44453D320D0A0041542B43575391
:1038880041503D222573222C222573222C31312CC4
:10389800340D0A0041542B4349504D55583D310DC4
:1038A8000A0041542B4349505345525645523D3125
:1038B8002C25730D0A000000000000000000000025
:1038C80000000000000000000000000000000000F0
:1038D80000000000000000000000000000000000E0
:1038E80000000000000000000000000000000000D0
:1038F80000000000000000000000000000000000C0
:06390800000000000000B9
:102ECD00C10EC10FC109C10BC10AC10D4102DD0007
:102EDD004202B300004202B10000C10CC110C10892
:042EED004102B000EE
:0741DE00300A02D322C322C4
:103FF5007E007F287D007B017A0279B5122527E4B2
:104005009002B3F0A3F09002B1F0A3F09002DDF0BE
:03401500C20A22BA
:103A33009001D0EBF0A3EAF0A3E9F0A3ECF0A3ED3F
:013A4300F092
:103A440078D77C017D017BFF7A3879BE7E007F1EAA
:103A540012234590020E74FFF0A37438F0A3745837
:103A6400F09001D3E0FFA3E0900211CFF0A3EFF0B8
:103A74009001D5E0FFA3E0900213CFF0A3EFF07B19
:103A8400017A0179D71225F57B017A0179D71241A0
:103A9400277F3212000E9001D0E0FBA3E0FAA3E0EE
:103AA400F91241277FC812000E200902C322C2095D
:013AB400D33E
:013AB50022EE
:0B34F3009001D0EBF0A3EAF0A3E9F099
:1034FE0078D97C017D017BFF7A3879DC7E007F32C2
:10350E001223457BFF7A38796B1241277F011240D7
:10351E00BB7BFF7A3879741241277F011240BB9032
:10352E00020E74FFF0A37438F0A37482F09001D0F1
:10353E00E0F9A3E0FAA3E0900211C9F0A3EAF0A328
:10354E00E9F09001D3E0F9A3E0FAA3E0900214C9E8
:10355E00F0A3EAF0A3E9F07B017A0179D91225F5FF
:10356E007B017A0179D91241277E007F327D007B63
:10357E00017A0179D91225277F011240BB7BFF7A90
:10358E0038796B1241277F011240BB7BFF7A387965
:10359E009C1241277F011240BB90020E74FFF0A3D4
:1035AE007438F0A374AAF09001D6E0F9A3E0FAA360
:1035BE00E0900211C9F0A3EAF0A3E9F07B017A01D1
:1035CE0079D91225F57B017A0179D91241277E002E
:1035DE007F327D007B017A0179D91225277F010286
:0235EE0040BBE0
:0300230002311C8B
:10311C00C0E0C0F0C083C082C0D075D000C000C079
:09312C0003C004C005C006C00781
:10313500C2AC90023BE599F0E024DD601424FD600B
:103145001424FC601824CF601C2437701AD21A800E
:1031550016D21B80129002E87402F0800A9002E8F1
:103165007403F08002D21E90023BE0FFB40A05D240
:103175000E02328BEFB40D05C20E02328B200F0307
:1031850002326120082DEF643A6028301025900244
:10319500B1E0FEA3E0FF7C007D0A1223E590023B2F
:1031A500E024D0FDEC34FFCD2FFFED3E9002B1F0D1
:1031B500A3EFF0200814300D1190023BE0B42C0A67
:1031C500300C07201004D210C20C200811200D0E5F
:1031D50090023BE0B42C07200C04D20CD20D200841
:1031E5002E90023BE0FB642C6025300C229002B34C
:1031F500E0FEA3E0FF7C007D0A1223E5EB24D0FD71
:10320500EC34FFCD2FFFED3E9002B3F0A3EFF0308D
:10321500084190023BE0FF9002DDE024B5F582E431
:103225003402F583EFF09002DDE004F0E0FFFD905D
:1032350002B1E0B4001DA3E0B5051874B52FF58201
:10324500E43402F583E4F0D20AC20FC20CC210C204
:1032550008C20D90023BE0B43A02D208200F273095
:103265000E2490023BE024BB600E24F2601024285B
:103275007012D20FC20E800EC209C20E8008D2098A
:10328500C20E8002C20E90023BE0B47F119002B0E4
:10329500E004F0E0B40A0CE4F075E7E08005900284
:0732A500B0E4F0C298D2ACC6
:1032AC00D007D006D005D004D003D000D0D0D08227
:0732BC00D083D0F0D0E03216
:103DC1003230253032645C253032645C2530326417
:103DD10020253032643A253032643A25303264008D
:103DE1001605251623000000000000000000000059
:043DF10000000000CE
:102EF1006064024C000000000000000000000000BF
:102F010000000000000000000000000000000000C0
:102F110000000000000000000000000000000000B0
:102F210000000000000000000000000000000000A0
:102F31000000000000000000000000000000000090
:102F41000000000000000000000000000000000080
:082F5100000000000000000078
:0541B1001241B6D29797
:0741B60000000000000022E0
:0F416C00D296D2971241B6C2961241B6C297228E
:0C41BD00C296C2971241B1D2960241B6E0
:0B41C900EF24FF92961241B1C2972232
:1040D4007F14D2961241B1309607DFFB1241BD80A6
:0640E400F6C2970241B68E
:0C3EB600AC0712416C7FA2123EC2AF04A8
:103EC200E4FEEF30E704D2968002C296EF25E0FFCF
:0F3ED200D2971241B6C2970EEEB408E60240D462
:10408600D296E4FED297EF25E0FFA296E4334FFFE7
:0A409600C2971241B60EEEB408EA1C
:0140A00022FD
:03418900A3E0FDB3
:0B418C00123EB6AF05123EC20241BD5C
:0B3CC5009001E7EBF0A3EAF0A3E9F0A8
:103CD000123EB612416C7FA3123EC2E4FCECC39DBF
:103CE00050271240869001E7E0FBA3E0FAA3E0F939
:103CF0008C82758300EF1223C3ED14FFECC39F5039
:103D000005E4FF1241C90C80D47F011241C9024170
:013D1000BDF5
:102F650078D77C017D017BFF7A3D79E77E007F0E76
:102F7500122345E49001E5F0A3F07B017A0179D0B5
:102F85007D077F02123CC59001D0E0547F90023C42
:102F9500F09001D1E0547F90023DF09001D2E054D1
:102FA5003F90023EF09001D3E0543F90023FF090F5
:102FB50001D5E0541F900240F09001D6E090024107
:102FC500F0A3F0900240E0900243F090023FE090C1
:102FD5000244F090023EE0900245F090023DE09000
:102FE5000246F090023CE0900247F0900242E0FD7C
:102FF500C4540F75F00AA4FFED540F7C002FFEECAE
:1030050035F09001D7F0A3CEF0900243E0FDC45413
:103015000F75F00AA4FFED540F2FFEEC35F090016B
:10302500D9F0A3CEF0900244E0FDC4540F75F00A28
:10303500A4FFED540F2FFEEC35F09001DBF0A3CE8D
:10304500F0900245E0FDC4540F75F00AA4FFED545D
:103055000F2FFEEC35F09001DDF0A3CEF090024687
:10306500E0FDC4540F75F00AA4FFED540F2FFEECDC
:1030750035F09001DFF0A3CEF0900247E0FDC45497
:103085000F75F00AA4FFED540F2FFEEC35F09001FB
:10309500E1F0A3CEF07B017A02794C1240EA90026E
:1030A5001DEEF0A3EFF090020E74FFF0A3743DF057
:1030B500A374C1F09001D7E0FFA3E0900211CFF017
:1030C500A3EFF09001D9E0FFA3E0900213CFF0A3A6
:1030D500EFF09001DBE0FFA3E0900215CFF0A3EF46
:1030E500F09001DDE0FFA3E0900217CFF0A3EFF031
:1030F5009001DFE0FFA3E0900219CFF0A3EFF0907D
:1031050001E1E0FFA3E090021BCFF0A3EFF07B010C
:073115007A02794C0225F556
:0D41A400122F6590023CE07003122F65227F
:103E8A0090023CE0FD7F0812418C7F071241897F36
:103E9A0005124189A3E0FD7F0412418CA3E0FD7F56
:0C3EAA000312418CA3E0FD7F0202418C5A
:10403400E4FFEF903DE193FE743C2FF582E43402FB
:0C404400F583EEF00FEFB406E9023E8AAF
:0541E5002530336400E9
:0B2F59004802EC000000000000000037
:103F3600D2A0C2A07FC81241EA7FC81241EAD2A02D
:103F46007F1E1241EA20A004D2238002C2237FC82A
:083F56001241EA7FC80241EAB2
:053E5B009001D3EFF01F
:103E6000E4A3F0F0D2A0C2A000009001D3E013922E
:103E7000A07F281241EA9001D3E0C313F0A3E0042D
:093E8000F0E0C3940840DDD2A07B
:013E89002216
:1040FF00D2A0C2A00000D2A0A2A092117F2812418C
:03410F00EAA21110
:01411200228A
:103EE100E49001D4F0F01240FFE433FCC4333333E7
:103EF1005480FE9001D3E0C3134EF0A3E004F0E040
:0A3F0100C3940840E19001D3E0FFF3
:013F0B002293
:103AB600E49001D1F0A3F0123F367FCC123E5B7F3B
:103AC60044123E5B7F3212000E123F367FCC123E0E
:103AD6005B7FBE123E5B123EE19001D0EFF0123EDC
:103AE600E1EFFE9001D0E07C002400FFEC3EFEAD4D
:103AF60007FC121E71E4FBFA7980783D121D6612EE
:103B06001EAA9002F4EEF0A3EFF012411390020EFB
:103B160074FFF0A37441F0A374E5F09002E9E0FFAE
:103B2600A3E0900211CFF0A3EFF07B017A0279ECCB
:033B36000225F570
:104113009002F4E0FEA3E0FF4E60089002E9EEF0A7
:04412300A3EFF022F4
:101D6600EC4D6011E8497017ED33EC3304600DE477
:101D7600FCFFFEFD22E933E8330470F8021F161259
:101D86001EE158046009E4CC24815006285009025B
:101D96001F20284003021F1DC0E0EB4A7044B98093
:101DA60006D0E0FB021F0CEF4E701CBD8008EBFF57
:101DB600EAFEE9FD80EBE98DF0A4FEE5F0021E4F98
:101DC600E9CDF9EAFEEBFFEF89F0A4FCE5F0CE8958
:101DD600F0A42EFFE435F0CD89F0A42DFEE435F015
:101DE6008067EF4E7005BD80D780C3EF8BF0A4AC43
:101DF600F0EE8BF0A42CFCE435F0F8EF8AF0A42C7E
:101E0600E5F038FCE433CB8DF0A42CFCE5F03BF890
:101E1600EE8AF0A42CFCE5F038F8E433CF89F0A480
:101E26002CFCE5F038CF3400CE89F0A42FFFE5F086
:101E36003EFEE433C98DF0A42EFEE5F039CD8AF0DE
:101E4600A42FFFE5F03EFEE43DFD33D0E0FB500756
:101E56000BBB000F021F20EC2CFCEF33FFEE33FE12
:061E6600ED33FD021EF841
:101E6C0075F020800E75F010800575F0087D007EF1
:101E7C00007F003392D530D503122470EC33401020
:101E8C00EF33FFEE33FEED33FDEC33FCD5F0ED22FA
:0E1E9C00E5F0247EA2D513CC92E7CDCEFF2236
:101EAA00EDD2E7CD33EC3392D524814006E4FFFE30
:101EBA00FDFC22FCE4CFCECDCC24E0501174FF808F
:101ECA00EDC3CC13CCCD13CDCE13CECF13CF04702C
:071EDA00F030D5DE02247098
:10259000E508240EF582E43402F583E00508229074
:1025A000020B30180390020EE475F0011224B10200
:1025B000236B2011E97F2ED2118018EF540F249045
:1025C000D43440D4FF30150BEF24BFB41A005003AD
:1025D0002461FFE50960021509050CE50C70020590
:1025E0000B30180E90020BE475F0011224B1EF02CB
:1025F00023B1023F857403D2188003E4C218F508A2
:1026000090020B1224C8E4F509F50BF50CE50960FE
:10261000077F201225D380F5750AFFC212C211C2AE
:1026200013C214C216C217C21912259FFF700D30B3
:1026300018057F001225E4AF0CAE0B22B4255FC253
:10264000D5C21512259FFF24D0B40A00501A75F088
:102650000A780930D50508B6FF0106C6A426F6207B
:10266000D5047002D21480D924CFB41A00EF5004DC
:10267000C2E5D2150228D6D21280C6D21180C0D2AD
:102680001380BCD2D580BAD21680B47F201225D355
:102690002013077401B5090040F1122590FF12259F
:1026A000D302260DD219D2178095122590FB122540
:1026B00090FA122590F94A4B700679D47A297BFF5B
:1026C00020132EE509602A7E008E82758300122376
:1026D0008460060EEE650A70F0C2D5EBC0E0EAC079
:1026E000E0E9C0E0EE122937D0E0F9D0E0FAD0E01E
:1026F000FB12236BFF60AAEBC0E0EAC0E0E9C0E098
:102700001225D3D0E02401F9D0E03400FAD0E0FB68
:10271000E50A0460DCD50AD98087D21380A2122989
:102720001960F7E50A700104121F2BA90A600DE574
:102730000A600914F50A1229C1EF60F3EA30E702D2
:10274000F404C3995079EAF4250A0430E701E4045B
:10275000F50A800D12291960C1EA050A250A121F1F
:102760002BEA90023AF030E701E4250A04D50A0486
:1027700020160114122937E4C0E01229C190023A50
:10278000E0601320E70714F01225BB802204F0D08C
:10279000E014C0E07F001225BBE50A60071225B2F5
:1027A000150A800B3016031225B2D0E002260DD098
:1027B000E00480C4122919609EE50A04121F2B90C0
:1027C000023AEAF0E50A2016026001042404122904
:0127D00037D1
:1027D10074FF04C0E01229C11225BBE50A201602CC
:1027E10060031225B2D0E0B50AE87F451225C590F5
:1027F100023AE07F2B30E7047F2DF404C0E012257C
:10280100D3D0E075F00A84C0F01225BCD0E01225C7
:10281100BC02260D791080027908C217C2198008FE
:10282100D2D5790A8004790AC2D5E50A047002F585
:102831000AE4FAFDFEFF122590FC7B082012131218
:102841002590FD7B1030110A122590FE122590FF74
:102851007B20EC3382D592D55013C3E43011069F0F
:10286100FFE49EFEE42012039DFDE49CFCE4CBF812
:10287100C212EC700CCFCECDCCE824F8F870F38006
:1028810017C3EF33FFEE33FEED33FDEC33FCEB33D7
:10289100FB994002FB0FD8E9EB301205F8D0E0C4F8
:1028A10048B212C0E00AEC4D4E4F78207B0070C256
:1028B100EAB50A0040BCC0E0122939D0F0D0E020CE
:1028C1001204C4C0E0C4B212C0F01225BCD0F0D5CD
:1028D100F0EB02260D12250126AA53281558267B56
:1028E1004C26774228194F28214428214926904314
:1028F10028275527544627B445271E4729F4502633
:102901007F2D26832E26A62B26872326A42029DD8C
:102911002A263F480000269EE50AB4FF03750A06F1
:10292100122590FC122590FD122590FE122590FF94
:10293100900233021F68790AA2D5201414301609B7
:10294100B910020404B9080104A2D52017025001EC
:10295100042013689213B509005034C0E07F203081
:1029610014197F30A21372177216500F122990C2D8
:1029710013C217C216C2197F30800F301603E9C087
:10298100E01225D3301603D0E0F9D0E0B509CC3000
:1029910016177F30B9100C1225D37F583015077FD9
:1029A100788003B908031225D33013057F2D022542
:1029B100D37F202019F87F2B2017F322921380CF89
:1029C1007F00B40700500B2433F582E43402F58311
:1029D100E0FF22286E756C6C2900D212122590300E
:1029E10012F8C212780930D50108F602263F2D509F
:1029F1004349581225902403B405004001E490296D
:102A0100EF931225C4743A1225C4D2147509040235
:022A1100281586
:101EE100E9D2E7C933E833F892D5EDD2E7CD33EC47
:071EF10033FC5002B2D522C0
:101EF800EC30E7100FBF000C0EBE00080DBD00044B
:101F08000BEB6014A2D5EB13FCED92E7FD2274FFF6
:101F1800FCFDFEFF22E480F8A2D574FF13FC7D804F
:031F2800E480EF63
:101F2B00F920E73624F950037907E4F42402FBE5A2
:101F3B0082158270021583DBF6E024FB501BE960EF
:101F4B0014E4F0E582158270021583E004F0B40A04
:0D1F5B0008E4F0D9EE7401F00A22C2D5228C
:101F6800ED33EC3392D5FA602AB4FF33EDC2E77B48
:101F7800FF60067A1F798DE4227A1F799620D504AE
:101F88007A1F7991224E614E002B494E46002D4909
:101F98004E4600E47A08F0A3DAFC7B00740722C0FE
:101FA80083C082ECC0E0EDC0E0EEC0E0EFC0E0EA44
:101FB80075F010A4CAABF075F04DA42BFBE435F016
:101FC800FCEA2410FAEB34C5FBEC34D9FCEDC2E78B
:101FD800FF75F056A4F42411C5F0F434C58FF0A4AD
:101FE8002AE5F03BE43CF020E714122235D0E0FF6C
:101FF800D0E0FED0E0FDD0E0FC1221688014F404AB
:10200800122235D0E0FFD0E0FED0E0FDD0E0FC1297
:102018001D66D082D083E0FAEDD2E7CD33EC3324CD
:1020280082FBE4C3CF33CFCE33CECD33CD33DBF316
:102038007B0775F00A846004F0A31B0AE5F0F0A39F
:102048008FF0740AA4FFACF08EF0740AA42CFEACD6
:10205800F050010C8DF0740AA42CFDE435F0F0A3C7
:05206800DBDE7407221D
:10206D00021F16E86480F8E933E83360110460F06C
:10207D00ED33EC337009E8FCE9FDEAFEEBFF2204D9
:10208D0060DED3EB9FEA9EE99DE8C2E78CF0C2F7D4
:10209D0095F0400CE8CCF8E9CDF9EACEFAEBCFFBA0
:1020AD00121EE185D0F05804700320D5B3E80470FA
:1020BD00075002B2D5021F2092D5EC0460F7E4CC94
:1020CD00C0E0C398F8603B94186008400DD0E0FB69
:1020DD00021EF8E4FBFAC9FC8028E830E406E4C9E6
:1020ED00FBE4CAFCE830E305E4C9CACBFCE85407BD
:1020FD006010F8C3E913F9EA13FAEB13FBEC13FCC8
:10210D00D8F130F52FC3E49CFCEF9BFFEE9AFEED6A
:10211D0099FDD0E0FBEF4E4D4C701222DB03021FF8
:10212D001DEC2CFCEF33FFEE33FEED33FDED30E710
:10213D00EB021EF8EF2BFFEE3AFEED39FDD0E0FB82
:10214D0050130BBB0003021F20ED13FDEE13FEEF2A
:08215D0013FFEC13FC021EF855
:10216500021F20EC5D046005E859047003021F1688
:10217500121EE1580460F6EC4860F2EC7004FDFEB6
:10218500FF22C860DB2481C85009C398600250064D
:10219500021F1D9850CAF582E9294B4A7005AB828A
:1021A500021F0C75F0007C1A7880C3EF9BEE9AED48
:1021B50099400DC3EF9BFFEE9AFEED99FDE842F0C5
:1021C500DC23ACF0D0E0FFD0E0FED0E0FDAB822018
:1021D500E7101BEB60BAEC2CFCEF33FFEE33FEEDA2
:1021E50033FD021EF8E803F830E705C0F075F0008E
:1021F500EF2FFFEE33FEED33FD40B830E7C280AA86
:102205003F8000004120000042C80000447A0000E1
:10221500461C400047C35000497424004B18968063
:102225004CBEBC205A0E1BCA6753C21C749DC5AE5A
:10223500FB60065407601C2323122263EB543860AD
:102245000912224F12225E121D66ECF8EDF9EEFA24
:10225500EFCB22EB12225E80F1543803241C90222E
:1022650005FE93FC0EEE93FD0EEE930ECE93FF222C
:1039B300022A13E493A3F8E493A34003F68001F2ED
:1039C30008DFF48029E493A3F85407240CC8C33315
:1039D300C4540F4420C8834004F456800146F6DFE4
:1039E300E4800B0102040810204080902CF1E47E57
:1039F300019360BCA3FF543F30E509541FFEE493D9
:103A0300A360010ECF54C025E060A840B8E493A39F
:103A1300FAE493A3F8E493A3C8C582C8CAC583CACA
:103A2300F0A3C8C582C8CAC583CADFE9DEE780BE82
:012F6400006C
:10227500E709F608DFFA8046E709F208DFFA803E4B
:1022850088828C83E709F0A3DFFA8032E309F60838
:10229500DFFA8078E309F208DFFA807088828C83A0
:1022A500E309F0A3DFFA806489828A83E0A3F60854
:1022B500DFFA805889828A83E0A3F208DFFA804C2E
:1022C50080D280FA80C680D4806980F28033801005
:1022D50080A680EA809A80A880DA80E280CA80336E
:1022E50089828A83ECFAE493A3C8C582C8CCC583E6
:1022F500CCF0A3C8C582C8CCC583CCDFE9DEE780B6
:102305000D89828A83E493A3F608DFF9ECFAA9F034
:10231500EDFB2289828A83ECFAE0A3C8C582C8CC8A
:10232500C583CCF0A3C8C582C8CCC583CCDFEADEA3
:10233500E880DB89828A83E493A3F208DFF980CC05
:1023450088F0EF60010E4E60C388F0ED2402B404FE
:102355000050B9F582EB2402B4040050AF232345A5
:0623650082239022C573E3
:10236B00BB010689828A83E0225002E722BBFE0270
:09237B00E32289828A83E49322A3
:10238400BB010CE58229F582E5833AF583E022500E
:1023940006E92582F8E622BBFE06E92582F8E22258
:0D23A400E58229F582E5833AF583E4932272
:1023B100BB010689828A83F0225002F722BBFE010B
:0223C100F32205
:1023C300F8BB010DE58229F582E5833AF583E8F050
:1023D300225006E92582C8F622BBFE05E92582C8FC
:0223E300F222E4
:1023E500EF8DF0A4A8F0CF8CF0A428CE8DF0A42E0C
:0223F500FE22C6
:1023F700A3F8E0C5F025F0F0E58215827002158399
:06240700E0C838F0E822F5
:10240D00BB010A89828A83E0F5F0A3E0225006879A
:10241D00F009E71922BBFE07E3F5F009E31922895C
:0B242D00828A83E493F5F0740193228F
:10243800BB010789828A83022553500B09C5F027FF
:10244800F7C5F01937F722BBFE0D09F8E325F0F3BD
:10245800C5F019E338F322F889828A837401932539
:08246800F0C5F0F8E4933822FE
:0E247000C3E49FFFE49EFEE49DFDE49CFC227D
:10247E00EB9FF5F0EA9E42F0E99D42F0EC6480C8D5
:06248E0064809845F02275
:10249400F5F0C582A4C582C5F0C583A42583F58360
:0124A4002215
:0C24A500A42582F582E5F03583F5832242
:1024B100F8E0FBA3A3E0F925F0F0E58215827002B4
:0724C1001583E0FA38F02258
:0924C800EBF0A3EAF0A3E9F02215
:1024D100BB010DE58229F582E5833AF58302257278
:1024E1005007E92582F8022569BBFE07E92582F834
:1024F10002257BE58229F582E5833AF5830225846D
:10250100D083D082F8E4937012740193700DA3A369
:1025110093F8740193F5828883E47374029368607D
:06252100EFA3A3A380DF7D
:103F8500EFB40A07740D123F90740A309811A8997E
:103F9500B8130CC2983098FDA899C298B811F6309C
:073FA50099FDC299F5992274
:1040EA00E4FFFE12236B600C0FEF70010E09E970FA
:0540FA00F20A80EF2234
:10252700EF4E6012EF60010EEDBB010B89828A83CB
:10253700F0A3DFFCDEFA2289F05007F709DFFCA9D8
:0C254700F022BBFEFCF309DFFCA9F0222F
:10255300C5F0F8A3E028F0C5F0F8E5821582700213
:062563001583E038F022B0
:09256900E6FB08E6FA08E6F92297
:09257200E0FBA3E0FAA3E0F9226A
:09257B00E2FB08E2FA08E2F92291
:0C258400E493FB740193FA740293F922B3
:00000001FF
