:030000000203C632
:0C03C600787FE4F6D8FD75812302040D59
:04000600AA5504FFF4
:07068E00011C00021A00002C
:0706DE00D2AFD2A8C28822AE
:0706E500D2AFD2AAC28A22A3
:10067E00D2AF438901758CFC758A18D2A9D28C220F
:1002A40078087C007D007BFF7A0079067E007F045D
:1002B400120243750CFF1206AE12069E1206DE12DF
:1002C40006E51205971200268F0CE50CB401137590
:1002D4000A017B007A0079081204521205E8EF0241
:1002E400039DE50CB40213750A027B007A007908B9
:1002F4001204521205E8EF02039DE50CB4031375D2
:100304000A037B007A0079081204521205E8EF020E
:10031400039DE50CB40412750A047B007A00790885
:100324001204521205E8EF8070E50CB40512750A48
:10033400057B007A0079081204521205E8EF80590F
:10034400E50CB40612750A067B007A0079081204DB
:10035400521205E8EF8042E50CB40712750A077BD8
:10036400007A0079081204521205E8EF802BE50C9C
:10037400B40812750A087B007A0079081204521234
:1003840005E8EF8014E50CB4090F750A097B007ABF
:100394000079081204521205E8E51C6401600302A6
:1003A40002C912056AE523640660030202C9F52343
:1003B400750A0AFB7A0079081204521205E8EF0262
:0203C40002C96C
:03000B000205C12A
:0405C100C0E0C0D006
:1005C500758CFC758A18051BE51B7002051AB4F4B9
:0E05D5000DE51AB40108751A00751B00D20856
:0505E300D0D0D0E03291
:030003000206C62C
:0806C600C2A8751C00D2A83285
:030013000206CE14
:0806CE00C2AA751C01D2AA3278
:03000E00DFFE22F0
:10065600AE07AF061EEF600C7FF512000E7FF51297
:05066600000E80EE22F1
:02063E00AD0706
:10064000E4FCECC39D500EE4FB7FC81206560BBBC6
:0506500005F70C80ED30
:010655002282
:030695000122003F
:10069E00759850438920758DFAD28ED2AFD2AC2286
:0806D6008F993099FDC29922B1
:10066B00120269FF600C1206D6740129F9E43AFAFA
:03067B0080EE22EC
:0300230002053D96
:09053D00C0E0C0D075D000C00779
:10054600C2ACAF99BF7F0F0522E522B40A0B752214
:0D0556000075E7E08003752200C298D2AC6A
:07056300D007D0D0D0E03238
:0A06BC003443101001344310100104
:0E06AE007F32120656C290D293C291D295228C
:10062500E4FEEF339294EF25E0FFD291A292E433FA
:080635004207C2910EBE08EA63
:01063D00229A
:0C001600C293120625E4FF120625D293C7
:0100220022BB
:09060B007D017F211206147F22FB
:10061400C293120625AC07AF05120625D293AF0488
:0106240022B3
:0604DC008B168A17891837
:1004E200E4FDC293120625AC07EDC395195017E43B
:1004F200FF120625AB16AA17A9188D82758300EF85
:0A0502001202820D80E3D293AF04D1
:01050C0022CC
:0B049F007BFF7A0679BC7514057F2AEC
:0604AA008B118A12891378
:1004B000E4FDC293120625AC07EDC395145018ABAA
:1004C000110513E513AA127002051214F91202693C
:0B04D000FF1206250D80E2D293AF045E
:0104DB0022FE
:100452008B0D8A0E890FC2907BFF7A0679BC7514C8
:10046200057F301204AA12049FAB0DAA0EA90F75C4
:1004720014047FA01204AA12060B7D1A7F2412060E
:1004820014E4FD7F251206147D077F261206147DD3
:0D0492000E7F20120614D2907F0A02000E89
:1005E8007F071200168F202005033004137DFF7F3C
:1005F80027120614C2937FE1120625D2937F0022A8
:030608007F01224D
:10059700C29012049F12060B1D7F251206147D04BC
:1005A7007F311206147D077F261206147D0F7F20E8
:0A05B700120614D2907F3202000EEB
:06050D008B1D8A1E891FF0
:10051300E4FB7F071200168F20300614C290AB1D38
:10052300AA1EA91F7519057F611204DC7B01D290F5
:090533007DFF7FE2120614AF0304
:01053C00229C
:10002600D283D284D285C282C281C280208212202B
:10003600810F20800C30830930840630850302014D
:100046006F7F0A12065620821220810F20800C3004
:10005600830930840630850302016FC282D281D2C1
:1000660080D283D284D28520820F30810C308009E1
:1000760030830630840320853CA2839283A2849237
:1000860084A2859285C282D281D28020830B30845D
:10009600083085057E007F072230830B20840830D8
:1000A60085057E007F042230830B30840820850579
:1000B6007E007F0122D282C281D280D283D284D2B4
:1000C6008530820F20810C3080093083063084030E
:1000D60020853CA2839283A2849284A2859285D2B3
:1000E60082C281D28020830B3084083085057E0051
:1000F6007F082230830B2084083085057E007F052B
:100106002230830B3084082085057E007F0222D2B0
:1001160082D281C280D283D284D28530820F30814E
:100126000C20800930830630840320853CA283920C
:1001360083A2849284A2859285D282D281C28020B3
:10014600830B3084083085057E007F092230830BBF
:100156002084083085057E007F062230830B30849C
:0D016600082085057E007F0322E4FEFF22B5
:05069800012300C10870
:10056A0030B10320962620B123309620C2082008F5
:10057A00032096FA300804E4F5232220960E7F051C
:0D058A0012065620960630B1037523062296
:1003D2000202A4E493A3F8E493A34003F68001F29B
:1003E20008DFF48029E493A3F85407240CC8C3332C
:1003F200C4540F4420C8834004F456800146F6DFFB
:10040200E4800B010204081020408090068EE47EF6
:10041200019360BCA3FF543F30E509541FFEE493EF
:10042200A360010ECF54C025E060A840B8E493A3B6
:10043200FAE493A3F8E493A3C8C582C8CAC583CAE1
:10044200F0A3C8C582C8CAC583CADFE9DEE780BE99
:01069D00005C
:10017300E709F608DFFA8046E709F208DFFA803E6E
:1001830088828C83E709F0A3DFFA8032E309F6085B
:10019300DFFA8078E309F208DFFA807088828C83C3
:1001A300E309F0A3DFFA806489828A83E0A3F60877
:1001B300DFFA805889828A83E0A3F208DFFA804C51
:1001C30080D280FA80C680D4806980F28033801028
:1001D30080A680EA809A80A880DA80E280CA803391
:1001E30089828A83ECFAE493A3C8C582C8CCC58309
:1001F300CCF0A3C8C582C8CCC583CCDFE9DEE780D9
:100203000D89828A83E493A3F608DFF9ECFAA9F057
:10021300EDFB2289828A83ECFAE0A3C8C582C8CCAD
:10022300C583CCF0A3C8C582C8CCC583CCDFEADEC6
:10023300E880DB89828A83E493A3F208DFF980CC28
:1002430088F0EF60010E4E60C388F0ED2402B40421
:100253000050B9F582EB2402B4040050AF232345C8
:0602630082239001C37329
:10026900BB010689828A83E0225002E722BBFE0293
:09027900E32289828A83E49322C6
:10028200F8BB010DE58229F582E5833AF583E8F0B2
:10029200225006E92582C8F622BBFE05E92582C85E
:0202A200F22246
:00000001FF
