:0300000002020DEC
:0C020D00787FE4F6D8FD758133020254BE
:100299002027A4642427200404FF0447340404000D
:1002A90008D2417E40D0090638C000FC02020E0087
:1002B900001F80400047444444474040407F0000BD
:1002C90000FF000000F8101010F8000201FE000005
:1002D900003F0000FF00000F0808FF08080F00009A
:1002E90000E1020CF00000F80000FF1008F0000027
:1002F900003F20203F00404F4141417F0101000064
:1003090000F02020F00010101010121102FC000063
:07047200D2AFD2A8D288220C
:07047900D2AFD2AAD28A2201
:10036500E4F526F527120472120479120462E4F505
:1003750080F590F5A0F5B07F2C12043A7580FF75D5
:0F03850090FF75A0FF75B0FF7F2C12043A80DF48
:03000300020410E4
:10041000C0E0C2A8E5A0700575A0FF800375A0002C
:05042000D2A8D0E0327B
:03001300020425BF
:10042500C0E0C2AAE5A0700575A0FF800375A00015
:05043500D2AAD0E03264
:03048000DFFE227A
:10043A00AE07AF061EEF600C7FF51204807FF5123F
:05044A00048080EE2299
:0203F800AD074F
:1003FA00E4FCECC39D500EE4FB7FC812043A0BBB2D
:05040A0005F70C80ED78
:01040F0022CA
:03001E00013200AC
:10046200759850438920758DFAD28ED2AFD2AC22C4
:080016008F993099FDC2992277
:10044F001203DFFF600C120016740129F9E43AFA67
:03045F0080EE220A
:0300230002039441
:09039400C0E0C0D075D000C00724
:10039D00C2ACAF99BF7F0F0532E532B40A0B75328F
:0D03AD000075E7E08003753200C298D2AC05
:0703BA00D007D0D0D0E032E3
:1003C100D3EF9400EE940040147D7C7C00ED1D7011
:0D03D100011CED4C70F7EF1F70E61E80E37D
:0103DE0022FC
:0C0006001533153315331533153315333E
:0100120022CB
:10031900E4FF752D017E08EF25E0FFE4FD20930938
:10032900AC050DECC3941440F4EDC3941440028061
:100339002312000612000612000630931C0F309398
:100349000DAC050DECC394145004D29380F0EDC3A9
:0B03590094144005E4F52DFF22DEBCEB
:010364002276
:10017300E4FBF9FAC2AFC2937F14FE1203C1D29318
:1001830012000612000612000612000630930280C7
:1001930074209309AF020AEFC3941440F4EAC394A2
:1001A3001440028016E4FAD293309309AF020AEFA7
:1001B300C3941440F4EAC394144004D2938046E4F5
:1001C300FB12031974282BF8A607E52D7006D293AA
:1001D300D2AFFF22EB6404600774282BF8E629F9F9
:1001E3000BBB05DDE9B52C1DE52875F00AA485F0E8
:1001F3002EF52FE52A75F00AA485F030F531D29358
:09020300D2AF7F0122D2AF7F00CF
:01020C0022CF
:10002600D283D284D285C282C281C280208212202B
:10003600810F20800C30830930840630850302014D
:100046006F7F0A12043A20821220810F20800C3022
:10005600830930840630850302016FC282D281D2C1
:1000660080D283D284D28520820F30810C308009E1
:1000760030830630840320853CA2839283A2849237
:1000860084A2859285C282D281D28020830B30845D
:10009600083085057E007F072230830B20840830D8
:1000A60085057E007F042230830B30840820850579
:1000B6007E007F0122D282C281D280D283D284D2B4
:1000C6008530820F20810C3080093083063084030E
:1000D60020853CA2839283A2849284A2859285D2B3
:1000E60082C281D28020830B3084083085057E0051
:1000F6007F082230830B2084083085057E007F052B
:100106002230830B3084082085057E007F0222D2B0
:1001160082D281C280D283D284D28530820F30814E
:100126000C20800930830630840320853CA283920C
:1001360083A2849284A2859285D282D281C28020B3
:10014600830B3084083085057E007F092230830BBF
:100156002084083085057E007F062230830B30849C
:0D016600082085057E007F0322E4FEFF22B5
:10021900020365E493A3F8E493A34003F68001F293
:1002290008DFF48029E493A3F85407240CC8C333E6
:10023900C4540F4420C8834004F456800146F6DFB5
:10024900E4800B010204081020408090001EE47E27
:10025900019360BCA3FF543F30E509541FFEE493AA
:10026900A360010ECF54C025E060A840B8E493A371
:10027900FAE493A3F8E493A3C8C582C8CAC583CA9C
:10028900F0A3C8C582C8CAC583CADFE9DEE780BE54
:0100210000DE
:1003DF00BB010689828A83E0225002E722BBFE021C
:0903EF00E32289828A83E493224F
:00000001FF
