:03000000020026D5
:0C002600787FE4F6D8FD75811202006DB1
:0100220000DD
:0A017D000808010204081020408069
:10014700E4FEC291EF339292EF25E0FFD2910EBE0B
:0201570008F0AE
:010159002283
:08018B00120147AF0502014714
:06001C0000D290C2902208
:10010200E4FEC2A1EF3392A2EF25E0FFD2A10EBE20
:0701120008F0D2A000C2A01A
:0101190022C3
:1000DF0012016D7FAA1201027DFFE4FF12018B1244
:1000EF00001C7F011201327DFF7FFF12018B120076
:0300FF001C80E082
:03019B00DFFE2262
:10013200AE07AF061EEF600C7FF512019B7FF51232
:05014200019B80EE228C
:02011A00AD072F
:10011C00E4FCECC39D500EE4FB7FC81201320BBB18
:05012C0005F70C80ED59
:0101310022AB
:0301870001120062
:10016D00759850438920758DFAD28ED2AFD2AC22BC
:080193008F993099FDC29922F9
:10015A00120003FF600C120193740129F9E43AFAC0
:03016A0080EE2202
:030023000200B226
:0900B200C0E0C0D075D000C00709
:1000BB00C2ACAF99BF7F0F0512E512B40A0B7512D4
:0D00CB000075E7E08003751200C298D2AC0A
:0700D800D007D0D0D0E032C8
:100032000200DFE493A3F8E493A34003F68001F205
:1000420008DFF48029E493A3F85407240CC8C333CF
:10005200C4540F4420C8834004F456800146F6DF9E
:10006200E4800B010204081020408090017DE47EB0
:10007200019360BCA3FF543F30E509541FFEE49393
:10008200A360010ECF54C025E060A840B8E493A35A
:10009200FAE493A3F8E493A3C8C582C8CAC583CA85
:1000A200F0A3C8C582C8CAC583CADFE9DEE780BE3D
:01018A000074
:10000300BB010689828A83E0225002E722BBFE02FB
:09001300E32289828A83E493222E
:00000001FF
